{
  "contractName": "MessageContract",
  "abi": [
    {
      "anonymous": false,
      "inputs": [
        {
          "indexed": false,
          "internalType": "string",
          "name": "message",
          "type": "string"
        },
        {
          "indexed": false,
          "internalType": "uint256",
          "name": "messageNumber",
          "type": "uint256"
        }
      ],
      "name": "MessageCreated",
      "type": "event"
    },
    {
      "inputs": [],
      "name": "messageCount",
      "outputs": [
        {
          "internalType": "uint256",
          "name": "",
          "type": "uint256"
        }
      ],
      "stateMutability": "view",
      "type": "function",
      "constant": true
    },
    {
      "inputs": [
        {
          "internalType": "uint256",
          "name": "",
          "type": "uint256"
        }
      ],
      "name": "messages",
      "outputs": [
        {
          "internalType": "uint256",
          "name": "index",
          "type": "uint256"
        },
        {
          "internalType": "string",
          "name": "message",
          "type": "string"
        }
      ],
      "stateMutability": "view",
      "type": "function",
      "constant": true
    },
    {
      "inputs": [
        {
          "internalType": "string",
          "name": "_message",
          "type": "string"
        }
      ],
      "name": "createMessage",
      "outputs": [],
      "stateMutability": "nonpayable",
      "type": "function"
    }
  ],
  "bytecode": "0x60806040526000805534801561001457600080fd5b506108e0806100246000396000f3fe608060405234801561001057600080fd5b50600436106100415760003560e01c80630d80fefd14610046578063198a2de9146100775780633dbcc8d114610093575b600080fd5b610060600480360381019061005b919061025c565b6100b1565b60405161006e929190610328565b60405180910390f35b610091600480360381019061008c919061048d565b61015d565b005b61009b61020c565b6040516100a891906104d6565b60405180910390f35b60016020528060005260406000206000915090508060000154908060010180546100da90610520565b80601f016020809104026020016040519081016040528092919081815260200182805461010690610520565b80156101535780601f1061012857610100808354040283529160200191610153565b820191906000526020600020905b81548152906001019060200180831161013657829003601f168201915b5050505050905082565b604051806040016040528060005481526020018281525060016000805481526020019081526020016000206000820151816000015560208201518160010190816101a791906106fd565b509050506000808154809291906101bd906107fe565b91905055507ff7be7acf6ee12028d5f8905accb138284a9c004c527af4726f18e11a6c561bee8160016000546101f39190610846565b60405161020192919061087a565b60405180910390a150565b60005481565b6000604051905090565b600080fd5b600080fd5b6000819050919050565b61023981610226565b811461024457600080fd5b50565b60008135905061025681610230565b92915050565b6000602082840312156102725761027161021c565b5b600061028084828501610247565b91505092915050565b61029281610226565b82525050565b600081519050919050565b600082825260208201905092915050565b60005b838110156102d25780820151818401526020810190506102b7565b60008484015250505050565b6000601f19601f8301169050919050565b60006102fa82610298565b61030481856102a3565b93506103148185602086016102b4565b61031d816102de565b840191505092915050565b600060408201905061033d6000830185610289565b818103602083015261034f81846102ef565b90509392505050565b600080fd5b600080fd5b7f4e487b7100000000000000000000000000000000000000000000000000000000600052604160045260246000fd5b61039a826102de565b810181811067ffffffffffffffff821117156103b9576103b8610362565b5b80604052505050565b60006103cc610212565b90506103d88282610391565b919050565b600067ffffffffffffffff8211156103f8576103f7610362565b5b610401826102de565b9050602081019050919050565b82818337600083830152505050565b600061043061042b846103dd565b6103c2565b90508281526020810184848401111561044c5761044b61035d565b5b61045784828561040e565b509392505050565b600082601f83011261047457610473610358565b5b813561048484826020860161041d565b91505092915050565b6000602082840312156104a3576104a261021c565b5b600082013567ffffffffffffffff8111156104c1576104c0610221565b5b6104cd8482850161045f565b91505092915050565b60006020820190506104eb6000830184610289565b92915050565b7f4e487b7100000000000000000000000000000000000000000000000000000000600052602260045260246000fd5b6000600282049050600182168061053857607f821691505b60208210810361054b5761054a6104f1565b5b50919050565b60008190508160005260206000209050919050565b60006020601f8301049050919050565b600082821b905092915050565b6000600883026105b37fffffffffffffffffffffffffffffffffffffffffffffffffffffffffffffffff82610576565b6105bd8683610576565b95508019841693508086168417925050509392505050565b6000819050919050565b60006105fa6105f56105f084610226565b6105d5565b610226565b9050919050565b6000819050919050565b610614836105df565b61062861062082610601565b848454610583565b825550505050565b600090565b61063d610630565b61064881848461060b565b505050565b5b8181101561066c57610661600082610635565b60018101905061064e565b5050565b601f8211156106b15761068281610551565b61068b84610566565b8101602085101561069a578190505b6106ae6106a685610566565b83018261064d565b50505b505050565b600082821c905092915050565b60006106d4600019846008026106b6565b1980831691505092915050565b60006106ed83836106c3565b9150826002028217905092915050565b61070682610298565b67ffffffffffffffff81111561071f5761071e610362565b5b6107298254610520565b610734828285610670565b600060209050601f8311600181146107675760008415610755578287015190505b61075f85826106e1565b8655506107c7565b601f19841661077586610551565b60005b8281101561079d57848901518255600182019150602085019450602081019050610778565b868310156107ba57848901516107b6601f8916826106c3565b8355505b6001600288020188555050505b505050505050565b7f4e487b7100000000000000000000000000000000000000000000000000000000600052601160045260246000fd5b600061080982610226565b91507fffffffffffffffffffffffffffffffffffffffffffffffffffffffffffffffff820361083b5761083a6107cf565b5b600182019050919050565b600061085182610226565b915061085c83610226565b9250828203905081811115610874576108736107cf565b5b92915050565b6000604082019050818103600083015261089481856102ef565b90506108a36020830184610289565b939250505056fea264697066735822122023d0aa792934b8bba0150adf303f36b9404818f9da17dd9408b8a5598e48301264736f6c63430008110033",
  "immutableReferences": {},
  "source": "// SPDX-License-Identifier: GPL-3.0\npragma solidity >=0.4.22 <0.9.0;\n\ncontract MessageContract{\n    uint256 public messageCount = 0;\n\n    struct Message{\n        uint256 index;\n        string message;\n    }\n    mapping(uint256 => Message) public messages;\n    event MessageCreated(string message, uint256 messageNumber);\n\n    function createMessage(string memory _message) public {\n        messages[messageCount] = Message(messageCount,_message);\n        messageCount++;\n        emit MessageCreated(_message,messageCount-1);\n    }\n}",
  "sourcePath": "/mnt/4A7C8D327C8D19B9/Documents/Flutter_Projects/dapp/blockchain/contracts/MessageContract.sol",
  "compiler": {
    "name": "solc",
    "version": "0.8.17+commit.8df45f5f.Emscripten.clang"
  },
  "schemaVersion": "3.4.10",
  "updatedAt": "2022-10-02T12:01:53.410Z",
  "networkType": "ethereum",
  "devdoc": {
    "kind": "dev",
    "methods": {},
    "version": 1
  },
  "userdoc": {
    "kind": "user",
    "methods": {},
    "version": 1
  }
}